{
  "contractName": "DemandBid",
  "abi": [
    {
      "constant": true,
      "inputs": [],
      "name": "auctionLength",
      "outputs": [
        {
          "name": "",
          "type": "uint256"
        }
      ],
      "payable": false,
      "stateMutability": "view",
      "type": "function"
    },
    {
      "constant": true,
      "inputs": [
        {
          "name": "",
          "type": "uint256"
        }
      ],
      "name": "round_info",
      "outputs": [
        {
          "name": "settlement_value",
          "type": "uint256"
        },
        {
          "name": "date",
          "type": "uint256"
        },
        {
          "name": "number_of_players",
          "type": "uint256"
        },
        {
          "name": "total_pot",
          "type": "uint256"
        },
        {
          "name": "total_pot_constant",
          "type": "uint256"
        },
        {
          "name": "higherInterval",
          "type": "uint256"
        },
        {
          "name": "lowerInterval",
          "type": "uint256"
        },
        {
          "name": "number_agent_inside_interval",
          "type": "uint256"
        },
        {
          "name": "sum_relativeness",
          "type": "uint256"
        },
        {
          "name": "settlement_is_set",
          "type": "bool"
        },
        {
          "name": "winnerPrediction",
          "type": "uint256"
        }
      ],
      "payable": false,
      "stateMutability": "view",
      "type": "function"
    },
    {
      "constant": true,
      "inputs": [
        {
          "name": "",
          "type": "address"
        },
        {
          "name": "",
          "type": "uint256"
        }
      ],
      "name": "agent_details",
      "outputs": [
        {
          "name": "betAmount",
          "type": "uint256"
        },
        {
          "name": "prediction",
          "type": "uint256"
        },
        {
          "name": "hash_prediction",
          "type": "bytes32"
        },
        {
          "name": "reward",
          "type": "uint256"
        },
        {
          "name": "claimed",
          "type": "bool"
        },
        {
          "name": "bet_hashes_correct",
          "type": "bool"
        },
        {
          "name": "insideInterval",
          "type": "bool"
        },
        {
          "name": "relativeness",
          "type": "uint256"
        },
        {
          "name": "revealBet_hasSet",
          "type": "bool"
        }
      ],
      "payable": false,
      "stateMutability": "view",
      "type": "function"
    },
    {
      "inputs": [
        {
          "name": "_auctionLength",
          "type": "uint256"
        }
      ],
      "payable": false,
      "stateMutability": "nonpayable",
      "type": "constructor"
    },
    {
      "anonymous": false,
      "inputs": [
        {
          "indexed": true,
          "name": "accountAddress",
          "type": "address"
        },
        {
          "indexed": false,
          "name": "prediction",
          "type": "uint256"
        },
        {
          "indexed": false,
          "name": "dayNumber",
          "type": "uint256"
        }
      ],
      "name": "BetSubmission",
      "type": "event"
    },
    {
      "anonymous": false,
      "inputs": [
        {
          "indexed": false,
          "name": "day_number",
          "type": "uint256"
        },
        {
          "indexed": false,
          "name": "amount",
          "type": "uint256"
        }
      ],
      "name": "AuctionEnded",
      "type": "event"
    },
    {
      "anonymous": false,
      "inputs": [
        {
          "indexed": false,
          "name": "prediction_value",
          "type": "uint256"
        }
      ],
      "name": "predictionMatchesHash",
      "type": "event"
    },
    {
      "anonymous": false,
      "inputs": [
        {
          "indexed": false,
          "name": "hashes",
          "type": "bytes32"
        }
      ],
      "name": "keccak256Hash",
      "type": "event"
    },
    {
      "anonymous": false,
      "inputs": [
        {
          "indexed": false,
          "name": "hash_prediction",
          "type": "bytes32"
        }
      ],
      "name": "HashPrediction",
      "type": "event"
    },
    {
      "anonymous": false,
      "inputs": [
        {
          "indexed": false,
          "name": "prediction",
          "type": "uint256"
        }
      ],
      "name": "GetPrediction",
      "type": "event"
    },
    {
      "anonymous": false,
      "inputs": [
        {
          "indexed": false,
          "name": "prediction",
          "type": "bytes32"
        }
      ],
      "name": "PredictionInBytes32",
      "type": "event"
    },
    {
      "anonymous": false,
      "inputs": [
        {
          "indexed": false,
          "name": "str",
          "type": "string"
        }
      ],
      "name": "PredictionNotInsideInterval",
      "type": "event"
    },
    {
      "anonymous": false,
      "inputs": [
        {
          "indexed": false,
          "name": "_string",
          "type": "string"
        }
      ],
      "name": "PrintString",
      "type": "event"
    },
    {
      "anonymous": false,
      "inputs": [
        {
          "indexed": false,
          "name": "_uint",
          "type": "uint256"
        }
      ],
      "name": "PrintUint",
      "type": "event"
    },
    {
      "anonymous": false,
      "inputs": [
        {
          "indexed": false,
          "name": "_bool",
          "type": "bool"
        }
      ],
      "name": "PrintBoolean",
      "type": "event"
    },
    {
      "constant": true,
      "inputs": [],
      "name": "getHash",
      "outputs": [
        {
          "name": "",
          "type": "bytes32"
        }
      ],
      "payable": false,
      "stateMutability": "view",
      "type": "function"
    },
    {
      "constant": true,
      "inputs": [],
      "name": "getCurrentDay",
      "outputs": [
        {
          "name": "",
          "type": "uint256"
        }
      ],
      "payable": false,
      "stateMutability": "view",
      "type": "function"
    },
    {
      "constant": false,
      "inputs": [
        {
          "name": "_blindedBid",
          "type": "bytes32"
        }
      ],
      "name": "submitBet",
      "outputs": [],
      "payable": true,
      "stateMutability": "payable",
      "type": "function"
    },
    {
      "constant": true,
      "inputs": [],
      "name": "getTodayCurrentSeconds",
      "outputs": [
        {
          "name": "",
          "type": "uint256"
        }
      ],
      "payable": false,
      "stateMutability": "view",
      "type": "function"
    },
    {
      "constant": false,
      "inputs": [],
      "name": "withdraw",
      "outputs": [],
      "payable": false,
      "stateMutability": "nonpayable",
      "type": "function"
    },
    {
      "constant": false,
      "inputs": [],
      "name": "updateTotalPotFor2DaysAgoRound",
      "outputs": [],
      "payable": false,
      "stateMutability": "nonpayable",
      "type": "function"
    },
    {
      "constant": true,
      "inputs": [
        {
          "name": "day",
          "type": "uint256"
        }
      ],
      "name": "getTotalPot",
      "outputs": [
        {
          "name": "",
          "type": "uint256"
        }
      ],
      "payable": false,
      "stateMutability": "view",
      "type": "function"
    },
    {
      "constant": true,
      "inputs": [
        {
          "name": "day",
          "type": "uint256"
        }
      ],
      "name": "getTotalPotConstant",
      "outputs": [
        {
          "name": "",
          "type": "uint256"
        }
      ],
      "payable": false,
      "stateMutability": "view",
      "type": "function"
    },
    {
      "constant": true,
      "inputs": [
        {
          "name": "day",
          "type": "uint256"
        }
      ],
      "name": "getRewardAmount",
      "outputs": [
        {
          "name": "",
          "type": "uint256"
        }
      ],
      "payable": false,
      "stateMutability": "view",
      "type": "function"
    },
    {
      "constant": true,
      "inputs": [],
      "name": "getDayCount",
      "outputs": [
        {
          "name": "",
          "type": "uint256"
        }
      ],
      "payable": false,
      "stateMutability": "view",
      "type": "function"
    },
    {
      "constant": false,
      "inputs": [
        {
          "name": "value",
          "type": "uint256"
        }
      ],
      "name": "setSettlementValue",
      "outputs": [],
      "payable": false,
      "stateMutability": "nonpayable",
      "type": "function"
    },
    {
      "constant": true,
      "inputs": [
        {
          "name": "prediction",
          "type": "uint256"
        },
        {
          "name": "password",
          "type": "string"
        }
      ],
      "name": "returnKeccak256OfEncoded",
      "outputs": [
        {
          "name": "",
          "type": "bytes32"
        }
      ],
      "payable": false,
      "stateMutability": "pure",
      "type": "function"
    },
    {
      "constant": true,
      "inputs": [],
      "name": "getRevealedBet",
      "outputs": [
        {
          "name": "",
          "type": "bool"
        }
      ],
      "payable": false,
      "stateMutability": "view",
      "type": "function"
    },
    {
      "constant": false,
      "inputs": [
        {
          "name": "prediction",
          "type": "uint256"
        },
        {
          "name": "password",
          "type": "string"
        }
      ],
      "name": "revealBet",
      "outputs": [
        {
          "name": "",
          "type": "bool"
        }
      ],
      "payable": false,
      "stateMutability": "nonpayable",
      "type": "function"
    },
    {
      "constant": true,
      "inputs": [],
      "name": "getSenderPrediction",
      "outputs": [
        {
          "name": "",
          "type": "uint256"
        }
      ],
      "payable": false,
      "stateMutability": "view",
      "type": "function"
    },
    {
      "constant": true,
      "inputs": [],
      "name": "getResult",
      "outputs": [
        {
          "name": "",
          "type": "bool"
        }
      ],
      "payable": false,
      "stateMutability": "view",
      "type": "function"
    },
    {
      "constant": false,
      "inputs": [],
      "name": "calculateReward",
      "outputs": [],
      "payable": false,
      "stateMutability": "nonpayable",
      "type": "function"
    },
    {
      "constant": true,
      "inputs": [
        {
          "name": "dayNumber",
          "type": "uint256"
        }
      ],
      "name": "getSettlementValue",
      "outputs": [
        {
          "name": "",
          "type": "uint256"
        }
      ],
      "payable": false,
      "stateMutability": "view",
      "type": "function"
    },
    {
      "constant": false,
      "inputs": [],
      "name": "mock",
      "outputs": [],
      "payable": false,
      "stateMutability": "nonpayable",
      "type": "function"
    },
    {
      "constant": false,
      "inputs": [
        {
          "name": "day",
          "type": "uint256"
        }
      ],
      "name": "getBetAmount",
      "outputs": [
        {
          "name": "",
          "type": "uint256"
        }
      ],
      "payable": false,
      "stateMutability": "nonpayable",
      "type": "function"
    }
  ],
  "bytecode": "0x608060405260016004556000801b6006556000600760006101000a81548160ff0219169083151502179055506000600760016101000a81548160ff0219169083151502179055503480156200005357600080fd5b5060405160208062002b10833981018060405260208110156200007557600080fd5b81019080805190602001909291905050504260058190555080600181905550336000806101000a81548173ffffffffffffffffffffffffffffffffffffffff021916908373ffffffffffffffffffffffffffffffffffffffff160217905550620000e4620000eb60201b60201c565b50620002f3565b5b600a6004541015620001f957600454600901600260003373ffffffffffffffffffffffffffffffffffffffff1673ffffffffffffffffffffffffffffffffffffffff16815260200190815260200160002060006004548152602001908152602001600020600101819055506064600260003373ffffffffffffffffffffffffffffffffffffffff1673ffffffffffffffffffffffffffffffffffffffff1681526020019081526020016000206000600454815260200190815260200160002060000181905550606460036000600454815260200190815260200160002060030181905550620001e26064620001fb60201b60201c565b6001600460008282540192505081905550620000ec565b565b6000809054906101000a900473ffffffffffffffffffffffffffffffffffffffff1673ffffffffffffffffffffffffffffffffffffffff163373ffffffffffffffffffffffffffffffffffffffff1614620002a2576040517f08c379a000000000000000000000000000000000000000000000000000000000815260040180806020018281038252603181526020018062002adf6031913960400191505060405180910390fd5b8060036000600454815260200190815260200160002060000181905550600160036000600454815260200190815260200160002060090160006101000a81548160ff02191690831515021790555050565b6127dc80620003036000396000f3fe6080604052600436106101405760003560e01c806390de2aef116100b6578063e19c5b3d1161006f578063e19c5b3d14610703578063e220e9c214610732578063e543804a1461076d578063eb60764f14610784578063ed885897146107af578063ff505fa1146107fe57610140565b806390de2aef146104dc578063bb43f91c14610575578063c84993af1461062c578063d13319c41461067b578063d99ccc2d146106a6578063de292789146106d457610140565b80634f18efcd116101085780634f18efcd1461022c57806350082d4414610316578063725cedd3146103fc578063790dfbfa14610413578063869246b0146104625780638c78bf831461048d57610140565b80631fef59a314610145578063325c25a2146101705780633ccfd60b1461019b5780633e6968b6146101b25780634745d5a4146101dd575b600080fd5b34801561015157600080fd5b5061015a610815565b6040518082815260200191505060405180910390f35b34801561017c57600080fd5b50610185610875565b6040518082815260200191505060405180910390f35b3480156101a757600080fd5b506101b061087b565b005b3480156101be57600080fd5b506101c7610c3c565b6040518082815260200191505060405180910390f35b3480156101e957600080fd5b506102166004803603602081101561020057600080fd5b8101908080359060200190929190505050610c46565b6040518082815260200191505060405180910390f35b34801561023857600080fd5b506102fc6004803603604081101561024f57600080fd5b81019080803590602001909291908035906020019064010000000081111561027657600080fd5b82018360208201111561028857600080fd5b803590602001918460018302840111640100000000831117156102aa57600080fd5b91908080601f016020809104026020016040519081016040528093929190818152602001838380828437600081840152601f19601f820116905080830192505050505050509192919290505050610c66565b604051808215151515815260200191505060405180910390f35b34801561032257600080fd5b506103e66004803603604081101561033957600080fd5b81019080803590602001909291908035906020019064010000000081111561036057600080fd5b82018360208201111561037257600080fd5b8035906020019184600183028401116401000000008311171561039457600080fd5b91908080601f016020809104026020016040519081016040528093929190818152602001838380828437600081840152601f19601f820116905080830192505050505050509192919290505050610ffc565b6040518082815260200191505060405180910390f35b34801561040857600080fd5b50610411611017565b005b34801561041f57600080fd5b5061044c6004803603602081101561043657600080fd5b81019080803590602001909291905050506111c3565b6040518082815260200191505060405180910390f35b34801561046e57600080fd5b506104776111f0565b6040518082815260200191505060405180910390f35b34801561049957600080fd5b506104c6600480360360208110156104b057600080fd5b810190808035906020019092919050505061120c565b6040518082815260200191505060405180910390f35b3480156104e857600080fd5b50610515600480360360208110156104ff57600080fd5b8101908080359060200190929190505050611269565b604051808c81526020018b81526020018a8152602001898152602001888152602001878152602001868152602001858152602001848152602001831515151581526020018281526020019b50505050505050505050505060405180910390f35b34801561058157600080fd5b506105ce6004803603604081101561059857600080fd5b81019080803573ffffffffffffffffffffffffffffffffffffffff169060200190929190803590602001909291905050506112d0565b604051808a815260200189815260200188815260200187815260200186151515158152602001851515151581526020018415151515815260200183815260200182151515158152602001995050505050505050505060405180910390f35b34801561063857600080fd5b506106656004803603602081101561064f57600080fd5b810190808035906020019092919050505061135f565b6040518082815260200191505060405180910390f35b34801561068757600080fd5b50610690611432565b6040518082815260200191505060405180910390f35b6106d2600480360360208110156106bc57600080fd5b810190808035906020019092919050505061143c565b005b3480156106e057600080fd5b506106e9611804565b604051808215151515815260200191505060405180910390f35b34801561070f57600080fd5b5061071861181b565b604051808215151515815260200191505060405180910390f35b34801561073e57600080fd5b5061076b6004803603602081101561075557600080fd5b8101908080359060200190929190505050611832565b005b34801561077957600080fd5b50610782611928565b005b34801561079057600080fd5b50610799611a2e565b6040518082815260200191505060405180910390f35b3480156107bb57600080fd5b506107e8600480360360208110156107d257600080fd5b8101908080359060200190929190505050611a45565b6040518082815260200191505060405180910390f35b34801561080a57600080fd5b50610813611a72565b005b6000600260003373ffffffffffffffffffffffffffffffffffffffff1673ffffffffffffffffffffffffffffffffffffffff1681526020019081526020016000206000600260045403815260200190815260200160002060010154905090565b60015481565b60015460055442038161088a57fe5b04600481905550600160045411610909576040517f08c379a000000000000000000000000000000000000000000000000000000000815260040180806020018281038252601a8152602001807f4e6f20617661696c61626c65207769746864726177732079657400000000000081525060200191505060405180910390fd5b600060015460055442038161091a57fe5b06905060186001546003028161092c57fe5b04811015801561093e57506001548111155b610993576040517f08c379a00000000000000000000000000000000000000000000000000000000081526004018080602001828103825260248152602001806126b16024913960400191505060405180910390fd5b600260003373ffffffffffffffffffffffffffffffffffffffff1673ffffffffffffffffffffffffffffffffffffffff1681526020019081526020016000206000600260045403815260200190815260200160002060040160029054906101000a900460ff1615610bed57600260003373ffffffffffffffffffffffffffffffffffffffff1673ffffffffffffffffffffffffffffffffffffffff1681526020019081526020016000206000600260045403815260200190815260200160002060040160009054906101000a900460ff16610be857610a70611c75565b6000600260003373ffffffffffffffffffffffffffffffffffffffff1673ffffffffffffffffffffffffffffffffffffffff168152602001908152602001600020600060026004540381526020019081526020016000206003015490507f43123f7005ece31cd2478fa2cd0bec5ea2e353c1c3fe9ca390a6de2ab917eac96040518080602001828103825260168152602001807f526577617264206e6f7420636c69616d6564207965740000000000000000000081525060200191505060405180910390a17fa2a5950148bc9daaf224d9f6390a848d1fd96feecea86acf576f80ff2bb78298816040518082815260200191505060405180910390a16000811115610be6573373ffffffffffffffffffffffffffffffffffffffff166108fc829081150290604051600060405180830381858888f19350505050158015610bbb573d6000803e3d6000fd5b5080600360006002600454038152602001908152602001600020600301600082825403925050819055505b505b610c39565b7f9cc6808289aaf0e0c5cc035299b30089a211cf13d7cbbb9f00feb4a7c21cbd3c6040518080602001828103825260528152602001806127066052913960600191505060405180910390a15b50565b6000600454905090565b600060036000838152602001908152602001600020600001549050919050565b6000600154600554420381610c7757fe5b046004819055506000600154600554420381610c8f57fe5b069050600084846040516020018083815260200182805190602001908083835b60208310610cd25780518252602082019150602081019050602083039250610caf565b6001836020036101000a03801982511681845116808217855250505050505090500192505050604051602081830303815290604052805190602001209050600260003373ffffffffffffffffffffffffffffffffffffffff1673ffffffffffffffffffffffffffffffffffffffff1681526020019081526020016000206000600454815260200190815260200160002060020154600681905550600260003373ffffffffffffffffffffffffffffffffffffffff1673ffffffffffffffffffffffffffffffffffffffff1681526020019081526020016000206000600454815260200190815260200160002060020154811415610f2a5784600260003373ffffffffffffffffffffffffffffffffffffffff1673ffffffffffffffffffffffffffffffffffffffff16815260200190815260200160002060006004548152602001908152602001600020600101819055507fed9573f714f8f20fb41d2e585d31a3929cab5430d36b5eadcf9688b7002ad9d6856040518082815260200191505060405180910390a16001600260003373ffffffffffffffffffffffffffffffffffffffff1673ffffffffffffffffffffffffffffffffffffffff1681526020019081526020016000206000600454815260200190815260200160002060040160016101000a81548160ff0219169083151502179055507f6c290a5d2a5a6f6cf208cfcbdbfc5d3909374d2e21649f3ce70688c7998e27756001604051808215151515815260200191505060405180910390a16001600760006101000a81548160ff021916908315150217905550600192505050610ff6565b6000600260003373ffffffffffffffffffffffffffffffffffffffff1673ffffffffffffffffffffffffffffffffffffffff1681526020019081526020016000206000600454815260200190815260200160002060040160016101000a81548160ff0219169083151502179055507f6c290a5d2a5a6f6cf208cfcbdbfc5d3909374d2e21649f3ce70688c7998e27756000604051808215151515815260200191505060405180910390a16000600760006101000a81548160ff0219169083151502179055506000925050505b92915050565b60006110088383611e28565b80519060200120905092915050565b60015460055442038161102657fe5b04600481905550600060015460055442038161103e57fe5b069050611049611ea5565b156110de577f43123f7005ece31cd2478fa2cd0bec5ea2e353c1c3fe9ca390a6de2ab917eac96040518080602001828103825260158152602001807f726561636820696e7369646520696e74657276616c000000000000000000000081525060200191505060405180910390a16110be612073565b6001600760016101000a81548160ff0219169083151502179055506111c0565b7f43123f7005ece31cd2478fa2cd0bec5ea2e353c1c3fe9ca390a6de2ab917eac96040518080602001828103825260198152602001807f7265616368206e6f7420696e7369646520696e74657276616c0000000000000081525060200191505060405180910390a16000600260003373ffffffffffffffffffffffffffffffffffffffff1673ffffffffffffffffffffffffffffffffffffffff16815260200190815260200160002060006002600454038152602001908152602001600020600301819055506000600760016101000a81548160ff0219169083151502179055505b50565b6000808210156111d257600080fd5b60036000838152602001908152602001600020600401549050919050565b60008060015460055442038161120257fe5b0690508091505090565b6000600260003373ffffffffffffffffffffffffffffffffffffffff1673ffffffffffffffffffffffffffffffffffffffff1681526020019081526020016000206000838152602001908152602001600020600001549050919050565b60036020528060005260406000206000915090508060000154908060010154908060020154908060030154908060040154908060050154908060060154908060070154908060080154908060090160009054906101000a900460ff169080600a015490508b565b6002602052816000526040600020602052806000526040600020600091509150508060000154908060010154908060020154908060030154908060040160009054906101000a900460ff16908060040160019054906101000a900460ff16908060040160029054906101000a900460ff16908060050154908060060160009054906101000a900460ff16905089565b6000808210156113d7576040517f08c379a00000000000000000000000000000000000000000000000000000000081526004018080602001828103825260168152602001807f446179203c203020646f6573206e6f742065786973740000000000000000000081525060200191505060405180910390fd5b600260003373ffffffffffffffffffffffffffffffffffffffff1673ffffffffffffffffffffffffffffffffffffffff1681526020019081526020016000206000838152602001908152602001600020600301549050919050565b6000600654905090565b60003411611495576040517f08c379a00000000000000000000000000000000000000000000000000000000081526004018080602001828103825260298152602001806126886029913960400191505060405180910390fd5b6004546001546005544203816114a757fe5b04146114c4576001546005544203816114bc57fe5b046004819055505b60006001546005544203816114d557fe5b0690506018600154601702816114e757fe5b0481111561155d576040517f08c379a000000000000000000000000000000000000000000000000000000000815260040180806020018281038252601f8152602001807f4f6e6c792061636365707420626574206265666f72652032332e30302e30300081525060200191505060405180910390fd5b34600260003373ffffffffffffffffffffffffffffffffffffffff1673ffffffffffffffffffffffffffffffffffffffff168152602001908152602001600020600060045481526020019081526020016000206000018190555081600260003373ffffffffffffffffffffffffffffffffffffffff1673ffffffffffffffffffffffffffffffffffffffff1681526020019081526020016000206000600454815260200190815260200160002060020181905550600260003373ffffffffffffffffffffffffffffffffffffffff1673ffffffffffffffffffffffffffffffffffffffff168152602001908152602001600020600060045481526020019081526020016000206002015460068190555034600260003373ffffffffffffffffffffffffffffffffffffffff1673ffffffffffffffffffffffffffffffffffffffff16815260200190815260200160002060006004548152602001908152602001600020600301819055506000600260003373ffffffffffffffffffffffffffffffffffffffff1673ffffffffffffffffffffffffffffffffffffffff1681526020019081526020016000206000600454815260200190815260200160002060040160006101000a81548160ff021916908315150217905550346003600060045481526020019081526020016000206003016000828254019250508190555034600360006004548152602001908152602001600020600401600082825401925050819055506001600360006004548152602001908152602001600020600201600082825401925050819055503373ffffffffffffffffffffffffffffffffffffffff167f3701903606470030258eea641d221e8d1f29aa09307fbb755a0711fb419c544b34600454604051808381526020018281526020019250505060405180910390a25050565b6000600760019054906101000a900460ff16905090565b6000600760009054906101000a900460ff16905090565b6000809054906101000a900473ffffffffffffffffffffffffffffffffffffffff1673ffffffffffffffffffffffffffffffffffffffff163373ffffffffffffffffffffffffffffffffffffffff16146118d7576040517f08c379a00000000000000000000000000000000000000000000000000000000081526004018080602001828103825260318152602001806126d56031913960400191505060405180910390fd5b8060036000600454815260200190815260200160002060000181905550600160036000600454815260200190815260200160002060090160006101000a81548160ff02191690831515021790555050565b5b600a6004541015611a2c57600454600901600260003373ffffffffffffffffffffffffffffffffffffffff1673ffffffffffffffffffffffffffffffffffffffff16815260200190815260200160002060006004548152602001908152602001600020600101819055506064600260003373ffffffffffffffffffffffffffffffffffffffff1673ffffffffffffffffffffffffffffffffffffffff1681526020019081526020016000206000600454815260200190815260200160002060000181905550606460036000600454815260200190815260200160002060030181905550611a166064611832565b6001600460008282540192505081905550611929565b565b6000600154600554420381611a3f57fe5b04905090565b600080821015611a5457600080fd5b60036000838152602001908152602001600020600301549050919050565b6000809054906101000a900473ffffffffffffffffffffffffffffffffffffffff1673ffffffffffffffffffffffffffffffffffffffff163373ffffffffffffffffffffffffffffffffffffffff1614611b17576040517f08c379a00000000000000000000000000000000000000000000000000000000081526004018080602001828103825260358152602001806127586035913960400191505060405180910390fd5b600154600554420381611b2657fe5b04600481905550600260045411611ba5576040517f08c379a000000000000000000000000000000000000000000000000000000000815260040180806020018281038252601a8152602001807f43616e206f6e6c7920757064617465206166746572206461793200000000000081525060200191505060405180910390fd5b6000600360006003600454038152602001908152602001600020600301541115611c7357600360006003600454038152602001908152602001600020600301546003600060026004540381526020019081526020016000206004016000828254019250508190555060036000600360045403815260200190815260200160002060030154600360006002600454038152602001908152602001600020600301600082825401925050819055506000600360006003600454038152602001908152602001600020600301819055505b565b600154600554420381611c8457fe5b0460048190555060006003600060026004540381526020019081526020016000206008015460036000600260045403815260200190815260200160002060040154600260003373ffffffffffffffffffffffffffffffffffffffff1673ffffffffffffffffffffffffffffffffffffffff16815260200190815260200160002060006002600454038152602001908152602001600020600501540281611d2657fe5b0490507f43123f7005ece31cd2478fa2cd0bec5ea2e353c1c3fe9ca390a6de2ab917eac96040518080602001828103825260198152602001807f52657761726420666f722074686973206163636f756e743a200000000000000081525060200191505060405180910390a17fa2a5950148bc9daaf224d9f6390a848d1fd96feecea86acf576f80ff2bb78298816040518082815260200191505060405180910390a180600260003373ffffffffffffffffffffffffffffffffffffffff1673ffffffffffffffffffffffffffffffffffffffff168152602001908152602001600020600060026004540381526020019081526020016000206003018190555050565b606082826040516020018083815260200182805190602001908083835b60208310611e685780518252602082019150602081019050602083039250611e45565b6001836020036101000a03801982511681845116808217855250505050505090500192505050604051602081830303815290604052905092915050565b6000600154600554420381611eb657fe5b04600481905550600160045411611ecc57600080fd5b60036000600260045403815260200190815260200160002060050154600260003373ffffffffffffffffffffffffffffffffffffffff1673ffffffffffffffffffffffffffffffffffffffff168152602001908152602001600020600060026004540381526020019081526020016000206001015411158015611fc2575060036000600260045403815260200190815260200160002060060154600260003373ffffffffffffffffffffffffffffffffffffffff1673ffffffffffffffffffffffffffffffffffffffff168152602001908152602001600020600060026004540381526020019081526020016000206001015410155b1561206b576001600260003373ffffffffffffffffffffffffffffffffffffffff1673ffffffffffffffffffffffffffffffffffffffff1681526020019081526020016000206000600260045403815260200190815260200160002060040160026101000a81548160ff02191690831515021790555060016003600060026004540381526020019081526020016000206007016000828254019250508190555060019050612070565b600090505b90565b60015460055442038161208257fe5b0460048190555060016004541161209857600080fd5b60006120a2612355565b9050600081600260003373ffffffffffffffffffffffffffffffffffffffff1673ffffffffffffffffffffffffffffffffffffffff16815260200190815260200160002060006002600454038152602001908152602001600020600001548161210757fe5b0490507f43123f7005ece31cd2478fa2cd0bec5ea2e353c1c3fe9ca390a6de2ab917eac96040518080602001828103825260208152602001807f63616c63756c61746552656c6174697665426574416e64436c6f73656e65737381525060200191505060405180910390a17f43123f7005ece31cd2478fa2cd0bec5ea2e353c1c3fe9ca390a6de2ab917eac960405180806020018281038252601f8152602001807f52656c61746976656e65737320666f722074686973206163636f756e743a200081525060200191505060405180910390a17fa2a5950148bc9daaf224d9f6390a848d1fd96feecea86acf576f80ff2bb78298816040518082815260200191505060405180910390a180600260003373ffffffffffffffffffffffffffffffffffffffff1673ffffffffffffffffffffffffffffffffffffffff168152602001908152602001600020600060026004540381526020019081526020016000206005018190555080600360006002600454038152602001908152602001600020600801600082825401925050819055507f43123f7005ece31cd2478fa2cd0bec5ea2e353c1c3fe9ca390a6de2ab917eac960405180806020018281038252601c8152602001807f53756d2052656c61746976656e65737320666f7220746f6461793a200000000081525060200191505060405180910390a17fa2a5950148bc9daaf224d9f6390a848d1fd96feecea86acf576f80ff2bb78298600360006002600454038152602001908152602001600020600801546040518082815260200191505060405180910390a15050565b600060015460055442038161236657fe5b0460048190555060016004541161237c57600080fd5b600080600260003373ffffffffffffffffffffffffffffffffffffffff1673ffffffffffffffffffffffffffffffffffffffff16815260200190815260200160002060006002600454038152602001908152602001600020600101546003600060026004540381526020019081526020016000206000015403141561240457600190506125fe565b600060036000600260045403815260200190815260200160002060000154600260003373ffffffffffffffffffffffffffffffffffffffff1673ffffffffffffffffffffffffffffffffffffffff168152602001908152602001600020600060026004540381526020019081526020016000206001015403141561248b57600190506125fd565b600260003373ffffffffffffffffffffffffffffffffffffffff1673ffffffffffffffffffffffffffffffffffffffff168152602001908152602001600020600060026004540381526020019081526020016000206001015460036000600260045403815260200190815260200160002060000154111561258357600260003373ffffffffffffffffffffffffffffffffffffffff1673ffffffffffffffffffffffffffffffffffffffff1681526020019081526020016000206000600260045403815260200190815260200160002060010154600360006002600454038152602001908152602001600020600001540390506125fc565b60036000600260045403815260200190815260200160002060000154600260003373ffffffffffffffffffffffffffffffffffffffff1673ffffffffffffffffffffffffffffffffffffffff16815260200190815260200160002060006002600454038152602001908152602001600020600101540390505b5b5b7f43123f7005ece31cd2478fa2cd0bec5ea2e353c1c3fe9ca390a6de2ab917eac960405180806020018281038252602481526020018061278d6024913960400191505060405180910390a17fa2a5950148bc9daaf224d9f6390a848d1fd96feecea86acf576f80ff2bb78298816040518082815260200191505060405180910390a1809150509056fe5468652062657420616d6f756e74206e6565647320746f2062652067726561746572207468616e203043616e206f6e6c792063616c6c65642077697468647261772061667465722033612e6d2e4f6e6c79206f776e6572206f662074686520636f6e74726163742063616e2063616c6c20746869732066756e6374696f6e596f75722070726564696374696f6e20617265206e6f7420636c6f736520746f2074686520736574746c656d656e742076616c756520736f20796f7520646f206e6f742077696e20616e79207072697a652e4f6e6c79206f77656e6572206f662074686520636f6e74726163742073686f756c642063616c20746869732066756e6374696f6e21496e7369646520646966666572656e636546726f6d536574746c656d656e7456616c7565a165627a7a7230582014e39e8ce83d4812e0d23616beb457499e83c2d246b6239a9071915452dea4d500294f6e6c79206f776e6572206f662074686520636f6e74726163742063616e2063616c6c20746869732066756e6374696f6e",
  "source": "pragma solidity 0.5.8;\n\ncontract DemandBid {\n\n    // address of the owner of this contract\n    address owner;\n\n    // length of round (24 hours, 00:00 - 23:59:59:99)\n    uint public auctionLength;\n\n    // uint256 is the date\n    mapping (address => mapping (uint => Bet_Info)) public agent_details;\n    mapping (uint => Round) public round_info;\n\n    // initialises day = 0\n    uint currentDay = 1;\n\n    // seconds when initialise the contract\n    uint secondInit;\n\n    constructor(uint _auctionLength) public {\n        secondInit = now;\n        auctionLength = _auctionLength;\n\n        // set owner of this contract ot be whi initialises this contract\n        owner = msg.sender;\n        mock();\n    }\n\n    struct Round {\n        uint settlement_value;\n        uint date;\n        uint number_of_players;\n        uint total_pot;             // today's total pot rrelative\n        uint total_pot_constant;    // today's total pot which will never get deducted\n        uint higherInterval;\n        uint lowerInterval;\n        uint number_agent_inside_interval;\n        uint sum_relativeness;\n        bool settlement_is_set;\n        uint winnerPrediction; //add for webapp\n    }\n\n    struct Bet_Info {\n        uint betAmount;\n        uint prediction;\n        bytes32 hash_prediction;\n        uint reward;\n        bool claimed;\n        bool bet_hashes_correct;\n        bool insideInterval;\n        uint relativeness;\n        bool revealBet_hasSet;\n    }\n\n    // Log the event about a bet submission being made by an address and its prediction\n    event BetSubmission(address indexed accountAddress, uint prediction, uint dayNumber);\n    // Calculate the shares that agent won\n    event AuctionEnded(uint day_number, uint amount);\n    // Log when the hashes match and the prediction value\n    event predictionMatchesHash(uint prediction_value);\n    // Log when keccak256 is hashed\n    event keccak256Hash(bytes32 hashes);\n    // Log when prediction hash is hashed\n    event HashPrediction(bytes32 hash_prediction);\n    // Log when prediction is get from the hash\n    event GetPrediction(uint prediction);\n    // Log when prediction_in_bytes32\n    event PredictionInBytes32(bytes32 prediction);\n    // Log when address has nothing to withdraw (prediction not inside interval)\n    event PredictionNotInsideInterval(string str);\n    // Log for printing when debugging\n    event PrintString(string _string);\n    // Log for printing uint\n    event PrintUint(uint _uint);\n\n    event PrintBoolean(bool _bool);\n    bytes32 hashNow = 0;\n    function getHash() public view returns (bytes32) {\n        return hashNow;\n    }\n\n    function getCurrentDay() public view returns (uint) {\n        return currentDay;\n    }\n\n    // https://emn178.github.io/online-tools/keccak_256.html\n    // Agent needs to go to this website to hash the bet first\n    // Bet can only be submitted from 00.00-23.00 of day0\n    function submitBet(bytes32 _blindedBid) public payable {\n\n        require (msg.value > 0, \"The bet amount needs to be greater than 0\");\n\n        // check if currentDay is today\n        if (((now - secondInit) / auctionLength) != currentDay) {\n\n              currentDay = (now - secondInit) / auctionLength;\n              // calculate rewards for previous day\n        }\n\n        // take modulus to find the seconds left in today\n        uint today_current_second = (now - secondInit) % auctionLength;\n        require (today_current_second <= 23 * auctionLength / 24, \"Only accept bet before 23.00.00\");\n\n        /*bytes memory stringAndPassword_bytes = abi.encodePacked(_blindedBid);\n\n        bytes32 hash = keccak256(stringAndPassword_bytes);\n        emit keccak256Hash(hash);*/\n\n        agent_details[msg.sender][currentDay].betAmount = msg.value;\n\n        //set hash_prediction = _blindedBid (arguments when this function is called)\n        agent_details[msg.sender][currentDay].hash_prediction = _blindedBid;\n        hashNow = agent_details[msg.sender][currentDay].hash_prediction;\n\n        // PS needs to initialise the reward = 0 after getting commit reveal scheme to work\n        agent_details[msg.sender][currentDay].reward = msg.value;\n\n        agent_details[msg.sender][currentDay].claimed = false;\n\n        // increment total_pot with the bet amount\n        round_info[currentDay].total_pot += msg.value;\n        // increment ttotal_pot_constant with the bet amount\n        round_info[currentDay].total_pot_constant += msg.value;\n        round_info[currentDay].number_of_players += 1;\n        emit BetSubmission(msg.sender, msg.value, currentDay);\n    }\n\n    function getTodayHash() private returns (bytes32) {\n        currentDay = (now - secondInit) / auctionLength;\n        return agent_details[msg.sender][currentDay].hash_prediction;\n    }\n\n    function getYesterdayHash() private returns (bytes32) {\n        currentDay = (now - secondInit) / auctionLength;\n        return agent_details[msg.sender][currentDay--].hash_prediction;\n    }\n\n    function getNow() private view returns (uint) {\n        uint x = now;\n        // return how many seconds have past\n        return x - secondInit;\n    }\n\n    function getTodayCurrentSeconds() public view returns (uint) {\n        // take modulus to find the seconds left in today\n        uint today_current_second = (now - secondInit) % auctionLength;\n        return today_current_second;\n    }\n\n    // withdraw function can only be called after 3a.m. on day2\n    // can only call withdraw after\n    function withdraw() public {\n        currentDay = (now - secondInit) / auctionLength;\n        require(currentDay > 1, \"No available withdraws yet\");\n        //require(, \"Can only claimed rewards for today\");\n\n        // Check whether it has past 3am\n        uint today_current_second = (now - secondInit) % auctionLength;\n        require(today_current_second >= 3 * auctionLength / 24 && today_current_second <= auctionLength, \"Can only called withdraw after 3a.m.\");\n\n        if (agent_details[msg.sender][currentDay-2].insideInterval) {\n\n            if (!agent_details[msg.sender][currentDay-2].claimed) {\n\n                // call getReward() to calculate what reward this address can claimed\n                // can only be called after all agents called calculateReward()\n                // only needs to call getReward() if it is inside interval\n                getReward();\n\n                //get reward of the reward that can be withdraw\n                uint twoDaysAgoReward = agent_details[msg.sender][currentDay-2].reward;\n\n                emit PrintString(\"Reward not cliamed yet\");\n                emit PrintUint(twoDaysAgoReward);\n\n                // only needs to transfer the funds if reward > 0\n                if (twoDaysAgoReward > 0) {\n\n                // REMARK: Maybe need to diveide by 100000000 to send in ether\n                // REMARK: Also maybe need to have if statement that the reward is not greater than the total pot\n\n                // transfer rewards to the agent\n                (msg.sender).transfer((twoDaysAgoReward));\n\n                // deduct the withdraw amount from today's total_pot\n                round_info[currentDay-2].total_pot -= twoDaysAgoReward;\n                }\n            }\n        }  else {\n            //\n            emit PredictionNotInsideInterval(\"Your prediction are not close to the settlement value so you do not win any prize.\");\n        }\n\n    }\n\n    // call this function if there is leftover total_pot from yesterday's\n    // can call this function first after settlement_value for today is called\n    // owner should be the one to call it\n    function updateTotalPotFor2DaysAgoRound() public {\n        require (msg.sender == owner, \"Only owener of the contract should cal this function!\");\n        currentDay = (now - secondInit) / auctionLength;\n        require(currentDay > 2, \"Can only update after day2\");\n\n        // only needs to update the pot if there is leftover\n        if (round_info[currentDay-3].total_pot > 0) {\n\n\n            // update total_pot with leftover\n            round_info[currentDay-2].total_pot_constant += round_info[currentDay-3].total_pot;\n            round_info[currentDay-2].total_pot += round_info[currentDay-3].total_pot;\n\n            round_info[currentDay-3].total_pot = 0;\n        }\n    }\n\n    function getTotalPot(uint day) public view returns (uint) {\n      require (day >= 0);\n      return round_info[day].total_pot;\n    }\n\n    function getTotalPotConstant(uint day) public view returns (uint) {\n      require (day >= 0);\n      return round_info[day].total_pot_constant;\n    }\n\n    // return the rewardAmount of the msg.sender on the day specify\n    // only call this function after calculate reward is already called\n    function getRewardAmount(uint day) public view returns (uint) {\n        require (day >= 0, \"Day < 0 does not exist\");\n        return agent_details[msg.sender][day].reward;\n    }\n\n    // return the day that the auction is in right now\n    function getDayCount() public view returns (uint) {\n      return (now - secondInit) / auctionLength;\n    }\n\n    // using 5% interval\n    // find the higher interval\n    function findHighestInterval() private returns (uint) {\n        currentDay = (now - secondInit) / auctionLength;\n        require (currentDay > 1, \"Can only find highest interval on day2\");\n        uint highestInterval = round_info[currentDay-2].settlement_value + round_info[currentDay-2].settlement_value / 20;\n        emit PrintUint(highestInterval);\n        return highestInterval;\n\n    }\n\n    //\n    function findLowestInterval() private returns (uint) {\n        currentDay = (now - secondInit) / auctionLength;\n        require (currentDay > 1, \"Can only find lowest interval on day2\");\n        uint lowestInterval = round_info[currentDay-2].settlement_value - round_info[currentDay-2].settlement_value / 20;\n        emit PrintUint(lowestInterval);\n        return lowestInterval;\n    }\n\n  // get settlementValue from energy supplier and set the settlement Value\n  // also calculate the highest and lowest interval\n  // starting from day0, settlement_value is set on day2\n  // owner of the contract can should call this at midnight of day1\n  function setSettlementValue(uint value) public{\n\n    require (msg.sender == owner, \"Only owner of the contract can call this function\");\n\n     // settlementValue = get_settlement_from_energy_supplier();\n    //currentDay = (now - secondInit) / auctionLength;\n\n    //require(currentDay > 1, \"Cannot set settlement value yet\");\n\n    // this function needs to be called by owner every midnight\n\n    round_info[(currentDay)].settlement_value = value;\n    //round_info[(currentDay-2)].higherInterval = findHighestInterval();\n    //round_info[(currentDay-2)].lowerInterval = findLowestInterval();\n    round_info[(currentDay)].settlement_is_set = true;\n  }\n\n    function returnABIEncodePacked(uint prediction, string memory password) private pure returns (bytes memory) {\n      return abi.encodePacked(prediction, password);\n    }\n\n    function returnKeccak256(bytes memory hash) private pure returns (bytes32) {\n      return keccak256(hash);\n    }\n\n    // Python can call this function to find the hash of the encode of prediction and password\n    function returnKeccak256OfEncoded(uint prediction, string memory password) public pure returns (bytes32) {\n        return keccak256(returnABIEncodePacked(prediction, password));\n    }\n    bool revealDone = false;\n\n    function getRevealedBet() public view returns (bool) {\n        return revealDone;\n    }\n\n\n    // Place a blinded bid with `_blindedBid` =\n    // keccak256(abi.encodePacked(prediction, password)).\n    function revealBet(uint prediction, string memory password) public returns (bool) {\n      currentDay = (now - secondInit) / auctionLength;\n\n      uint today_current_second = (now - secondInit) % auctionLength;\n      //require (today_current_second >= 23 * auctionLength / 24 && today_current_second <= auctionLength, \"Can only reveal bet from 11pm-12pm\");\n\n      bytes32 hash = keccak256(abi.encodePacked(prediction, password));\n      //emit keccak256Hash(hash);\n      hashNow = agent_details[msg.sender][currentDay].hash_prediction;\n\n\n      if (hash == agent_details[msg.sender][currentDay].hash_prediction) {\n\n            //set the real prediction value\n            agent_details[msg.sender][currentDay].prediction = prediction;\n\n            emit predictionMatchesHash(prediction);\n\n            //set bet_hashes_correct = true;\n            agent_details[msg.sender][currentDay].bet_hashes_correct = true;\n            emit PrintBoolean(true);\n            revealDone = true;\n            return true;\n\n        } else {\n            agent_details[msg.sender][currentDay].bet_hashes_correct = false;\n            emit PrintBoolean(false);\n            revealDone = false;\n            return false;\n        }\n\n  }\n\n  // check whether the prediction is inside today's interval\n  function checkIfInsideInterval() private returns (bool) {\n      currentDay = (now - secondInit) / auctionLength;\n      require (currentDay > 1);\n\n      if (agent_details[msg.sender][currentDay-2].prediction <= round_info[currentDay-2].higherInterval &&\n      agent_details[msg.sender][currentDay-2].prediction >= round_info[currentDay-2].lowerInterval) {\n          agent_details[msg.sender][currentDay-2].insideInterval = true;\n          round_info[currentDay-2].number_agent_inside_interval += 1;\n          return true;\n      }\n      return false;\n\n  }\n\n  function getSenderPrediction() public view returns (uint) {\n      return agent_details[msg.sender][currentDay-2].prediction;\n  }\n\n  // calculate the relativeness value and set the relativeness in the struct at the end\n  // calculate by the inverse of the differences between the settlement_value and the guess\n  // then multiply it with the betAmount\n  function calculateRelativeBetAndCloseness() private {\n      currentDay = (now - secondInit) / auctionLength;\n      require (currentDay > 1);\n\n      uint difference_from_settlement_value = differenceFromSettlementValue();\n\n      //calculate relativeness using formula 1/diff * betAmount\n      uint _relativeness = agent_details[msg.sender][currentDay-2].betAmount / difference_from_settlement_value;\n      emit PrintString(\"calculateRelativeBetAndCloseness\");\n      //it prints uint: 5000000000000000000\n      emit PrintString(\"Relativeness for this account: \");\n      emit PrintUint(_relativeness);\n\n      //maybe needs to have a parameter name relative\n\n      // set relativeness value\n      agent_details[msg.sender][currentDay-2].relativeness = _relativeness;\n\n      // add relativeness to today's total relativeness\n      round_info[currentDay-2].sum_relativeness += _relativeness;\n      emit PrintString(\"Sum Relativeness for today: \");\n      emit PrintUint(round_info[currentDay-2].sum_relativeness);\n\n  }\n\n\n    // find the difference between prediction and the actual settlement value\n    // needs to check for 0 (exact number for guess and settlement_value)\n    // if exactly then make equal to 1\n    function differenceFromSettlementValue() private returns (uint) {\n\n        currentDay = (now - secondInit) / auctionLength;\n\n        require (currentDay > 1);\n\n        uint difference_from_settlement_value;\n\n        // check if they are equal, if yes then return 1\n        if (round_info[currentDay-2].settlement_value - agent_details[msg.sender][currentDay-2].prediction == 0 ) {\n            difference_from_settlement_value = 1;\n        } else if (agent_details[msg.sender][currentDay-2].prediction - round_info[currentDay-2].settlement_value == 0) {\n            difference_from_settlement_value = 1;\n        } else if (round_info[currentDay-2].settlement_value > agent_details[msg.sender][currentDay-2].prediction) {\n            difference_from_settlement_value = round_info[currentDay-2].settlement_value - agent_details[msg.sender][currentDay-2].prediction;\n        } else {\n            difference_from_settlement_value = agent_details[msg.sender][currentDay-2].prediction - round_info[currentDay-2].settlement_value;\n        }\n\n        emit PrintString(\"Inside differenceFromSettlementValue\");\n        emit PrintUint(difference_from_settlement_value);\n        return difference_from_settlement_value;\n    }\n\n    // Can only calculate the reward on the day you withdraw\n    // call in withdraw\n    // only allow to withdraw after 3a.m. on day2\n    function getReward() private {\n      currentDay = (now - secondInit) / auctionLength;\n\n        // calculate the reward using formula (relativeness / sum_relativeness) * total_pot\n        uint _reward = agent_details[msg.sender][currentDay-2].relativeness  * round_info[currentDay-2].total_pot_constant / round_info[currentDay-2].sum_relativeness;\n        emit PrintString(\"Reward for this account: \");\n        emit PrintUint(_reward);\n        // update reward to the address\n        agent_details[msg.sender][currentDay-2].reward = _reward;\n    }\n    bool result = false;\n    function getResult() public view returns (bool) {\n        return result;\n    }\n\n    // calculate rewards should be called after settlement_value is set after midnight\n    // this should be called asap\n    // only allow to calculate reward  from midnight to 3a.m. on day2\n    function calculateReward() public {\n        currentDay = (now - secondInit) / auctionLength;\n\n        // take modulus to find the seconds left in today\n        uint today_current_second = (now - secondInit) % auctionLength;\n        //require (today_current_second >= 0 && today_current_second <= 3 * auctionLength / 24, \"Can only calculate rewards from midnight to 3a.m.\");\n\n        // checkIfInsideInterval\n        if (checkIfInsideInterval()) {\n            //calculate parameter for relativeness and sum_relativeness\n\n            emit PrintString(\"reach inside interval\");\n            calculateRelativeBetAndCloseness();\n            result = true;\n\n        } else {\n            emit PrintString(\"reach not inside interval\");\n            //if not inside the interval then agent do not get a reward\n            agent_details[msg.sender][currentDay-2].reward = 0;\n            result = false;\n\n      }\n  }\n\n  // return settlement_value of day that make prediction\n  function getSettlementValue(uint dayNumber) public view returns (uint) {\n      return round_info[dayNumber].settlement_value;\n  }\n\n  //for demostration, mock the settlement values\n  function mock() public {\n      //uint totalPots[7]= [13,15,32,25,40,45,35];\n      //uint settlementValues[7] = [20,10,30,40,35,32,33];\n\n      while(currentDay < 10) {\n      //set prediction\n      agent_details[msg.sender][currentDay].prediction = 9 + currentDay;\n      //set bet amount\n      agent_details[msg.sender][currentDay].betAmount = 100;\n      //set total pot\n      round_info[(currentDay)].total_pot = 100;\n      //set settlement value\n      setSettlementValue(100);\n      currentDay += 1;\n      }\n  }\n\n  function getBetAmount(uint day) public returns(uint) {\n    return agent_details[msg.sender][day].betAmount;\n  }\n\n\n\n\n\n\n}\n",
  "sourcePath": "/Users/Liu/softeng27/DApp/src/contracts/DemandBid.sol",
  "compiler": {
    "name": "solc",
    "version": "0.5.8+commit.23d335f2.Emscripten.clang"
  },
  "schemaVersion": "3.0.17",
  "updatedAt": "2020-01-10T11:11:12.217Z",
  "networkType": "ethereum",
  "devdoc": {
    "methods": {}
  },
  "userdoc": {
    "methods": {}
  }
}